{
    "contractName": "ZombieFactory",
    "abi": [
        {
            "constant": true,
            "inputs": [
                {
                    "name": "",
                    "type": "uint256"
                }
            ],
            "name": "zombies",
            "outputs": [
                {
                    "name": "name",
                    "type": "string"
                },
                {
                    "name": "dna",
                    "type": "uint256"
                }
            ],
            "payable": false,
            "stateMutability": "view",
            "type": "function"
        },
        {
            "constant": true,
            "inputs": [
                {
                    "name": "",
                    "type": "uint256"
                }
            ],
            "name": "zombieToOwner",
            "outputs": [
                {
                    "name": "",
                    "type": "address"
                }
            ],
            "payable": false,
            "stateMutability": "view",
            "type": "function"
        },
        {
            "constant": false,
            "inputs": [
                {
                    "name": "_name",
                    "type": "string"
                }
            ],
            "name": "createRandomZombie",
            "outputs": [],
            "payable": false,
            "stateMutability": "nonpayable",
            "type": "function"
        },
        {
            "anonymous": false,
            "inputs": [
                {
                    "indexed": false,
                    "name": "zombieId",
                    "type": "uint256"
                },
                {
                    "indexed": false,
                    "name": "name",
                    "type": "string"
                },
                {
                    "indexed": false,
                    "name": "dna",
                    "type": "uint256"
                }
            ],
            "name": "NewZombie",
            "type": "event"
        }
    ],
    "bytecode": "60606040526010600055662386f26fc10000600155341561001f57600080fd5b61057e8061002e6000396000f3006060604052600436106100565763ffffffff7c01000000000000000000000000000000000000000000000000000000006000350416632052465e811461005b578063528b7b8f146101015780637bff0a0114610140575b600080fd5b341561006657600080fd5b610071600435610193565b60405160208101829052604080825283546002600019610100600184161502019091160490820181905281906060820190859080156100f15780601f106100c6576101008083540402835291602001916100f1565b820191906000526020600020905b8154815290600101906020018083116100d457829003601f168201915b5050935050505060405180910390f35b341561010c57600080fd5b6101176004356101bc565b60405173ffffffffffffffffffffffffffffffffffffffff909116815260200160405180910390f35b341561014b57600080fd5b61019160046024813581810190830135806020601f820181900481020160405190810160405281815292919060208401838380828437509496506101e495505050505050565b005b60028054829081106101a157fe5b60009182526020909120600290910201600181015490915082565b60036020526000908152604090205473ffffffffffffffffffffffffffffffffffffffff1681565b73ffffffffffffffffffffffffffffffffffffffff33166000908152600460205260408120541561021457600080fd5b61021d8261022d565b905061022982826102a5565b5050565b600080826040518082805190602001908083835b602083106102605780518252601f199092019160209182019101610241565b6001836020036101000a03801982511681845116179092525050509190910192506040915050519081900390206001549091508181151561029d57fe5b069392505050565b60006001600280548060010182816102bd9190610415565b9160005260206000209060020201600060408051908101604052878152602081018790529190508151819080516102f8929160200190610446565b506020820151600191820155929091036000818152600360209081526040808320805473ffffffffffffffffffffffffffffffffffffffff19163373ffffffffffffffffffffffffffffffffffffffff169081179091558352600490915290819020805490940190935592507f88f026aacbbecc90c18411df4b1185fd8d9be2470f1962f192bf84a27d0704b79183915085908590518084815260200180602001838152602001828103825284818151815260200191508051906020019080838360005b838110156103d45780820151838201526020016103bc565b50505050905090810190601f1680156104015780820380516001836020036101000a031916815260200191505b5094505050505060405180910390a1505050565b8154818355818115116104415760020281600202836000526020600020918201910161044191906104c4565b505050565b828054600181600116156101000203166002900490600052602060002090601f016020900481019282601f1061048757805160ff19168380011785556104b4565b828001600101855582156104b4579182015b828111156104b4578251825591602001919060010190610499565b506104c09291506104f1565b5090565b6104ee91905b808211156104c05760006104de828261050b565b50600060018201556002016104ca565b90565b6104ee91905b808211156104c057600081556001016104f7565b50805460018160011615610100020316600290046000825580601f10610531575061054f565b601f01602090049060005260206000209081019061054f91906104f1565b505600a165627a7a723058200b2f802ba760b4a3a7c55b6df419145289d962a7b6568777c58c13adc34ef2690029",
    "sourcePath": "/home/frost/workspace/zombie-rich/src/contract.sol",
    "compiler": {
        "name": "solc",
        "version": "0.4.19+commit.c4cbbb05"
    },
    "functionHashes": {
        "createRandomZombie(string)": "7bff0a01",
        "zombieToOwner(uint256)": "528b7b8f",
        "zombies(uint256)": "2052465e"
    },
    "gasEstimates": {
        "creation": {
            "codeDepositCost": "281200",
            "executionCost": "40325",
            "totalCost": "321525"
        },
        "external": {
            "createRandomZombie(string)": "infinite",
            "zombieToOwner(uint256)": "482",
            "zombies(uint256)": "infinite"
        },
        "internal": {
            "_createZombie(string memory,uint256)": "infinite",
            "_generateRandomDna(string memory)": "infinite"
        }
    }
}